:1000000012C02BC049C028C09FC026C025C024C034
:1000100023C022C021C020C01FC050C01DC01CC0B2
:100020001BC01AC019C011241FBECFEDCDBF10E0F8
:10003000A0E6B0E0E6EFF1E002C005900D92A23636
:10004000B107D9F720E0A2E6B0E001C01D92A536C5
:10005000B207E1F7ACD0CDC0D3CF1F920F920FB64D
:100060000F9211248F939F93809160009091610073
:10007000892B59F4809160009091610083539F4FC8
:100080009093610080936000959A9F918F910F905B
:100090000FBE0F901F9018951F920F920FB60F92E0
:1000A00011248F939F9382B390E1892782BB9F9104
:1000B0008F910F900FBE0F901F9018951F920F9267
:1000C0000FB60F9211242F938F939F93809160000E
:1000D00090916100892B21F18091600090916100E5
:1000E000019790936100809360008091640081503B
:1000F00080936400843018F083E080936400209142
:10010000640081E090E001C0880F2A95EAF788BB7F
:100110009F918F912F910F900FBE0F901F90189568
:1001200018BA9598F5CF8091600090916100892B65
:1001300051F4809160009091610083539F4F9093A0
:1001400061008093600008951F920F920FB60F9286
:1001500011242F933F934F935F936F937F938F93CC
:100160009F93AF93BF93EF93FF9380916200909121
:1001700063000196909363008093620080339A42FB
:1001800028F01092630010926200CDDFFF91EF9192
:10019000BF91AF919F918F917F916F915F914F919F
:1001A0003F912F910F900FBE0F901F9018958C9A32
:1001B0008D9A81B3837F81BB8FEF87BB18BA9498E8
:1001C00095988BE986BF81E19AE79BBD8ABD82E065
:1001D00080BF83E083BF8EB58D608EBD89B781649B
:1001E00089BF8BB7806C8BBF85B78A6085BF7894D9
:0601F000FFCFF894FFCFE1
:0201F6000008FF
:00000001FF
