:1000000012C02BC059C028C077C026C025C024C04C
:1000100023C022C021C020C01FC095C01DC01CC06D
:100020001BC01AC019C011241FBECFEDCDBF10E0F8
:10003000A0E6B0E0ECEFF2E002C005900D92A6362B
:10004000B107D9F720E0A6E6B0E001C01D92A936BD
:10005000B207E1F72CD150C1D3CF1F920F920FB648
:100060000F9211248F939F938091610080FF12C0A3
:10007000809161008E7F809361008CE997E090937E
:100080006500809364009F918F910F900FBE0F9039
:100090001F90189584E690E090936500809364002B
:1000A000809162009091630086539F4F909363000C
:1000B00080936200919AE7CF1F920F920FB60F9232
:1000C00011248F939F938091610081FF12C08091D2
:1000D00061008D7F809361008CE997E090936300CD
:1000E000809362009F918F910F900FBE0F901F9091
:1000F000189584E690E0F2CF1F920F920FB60F9200
:1001000011248F939F9380916600909167000196D0
:100110009093670080936600059770F010926700D7
:1001200010926600809164009091650086539F4F05
:1001300090936500809364009F918F910F900FBE04
:100140000F901F9018951F920F920FB60F921124C7
:100150002F938F939F93949B67C0809160008F70C3
:100160008F3029F0809160008F5F80936000969BB4
:100170007CC080916000807F803F29F0809160008A
:10018000805F809360008091640090916500892B6E
:1001900009F485C080916400909165000197909367
:1001A0006500809364009091680020916800892F19
:1001B00090E0959587958770207F822B80936800CB
:1001C000809168008091680098B38F70907F892B30
:1001D00088BB8091620090916300892B09F462C012
:1001E00080916200909163000197909363008093E7
:1001F00062008091680090916800869588779F7072
:10020000892B80936800809168008091680098B382
:10021000807F9F70892B88BB9F918F912F910F902A
:100220000FBE0F901F901895809160008F7009F499
:100230009ECF80916000815080936000809160002B
:100240008F7009F094CF83E08093610080E098E0A4
:1002500090936500809364009093630080936200A4
:10026000109267001092660082CF80916000807FBC
:1002700009F489CF80916000805180936000809163
:100280006000807F09F07FCF8091640090916500CD
:1002900086539F4F909365008093640074CF88B31A
:1002A000807F96CF88B38F7088BB9198B5CF81B38C
:1002B000836081BB81B3837A81BB8CE582BB8FEF86
:1002C00087BB18BA909891988BE986BF81E19AE72D
:1002D0009BBD8ABD82E080BF83E083BF8EB58D6009
:1002E0008EBD89B7816489BF8BB7806C8BBF85B7A2
:0C02F0008A6085BF7894FFCFF894FFCFA0
:0602FC000F0300080008DA
:00000001FF
