:1000000012C02BC043C028C053C026C025C024C086
:1000100023C022C021C020C01FC054C01DC01CC0AE
:100020001BC01AC019C011241FBECFEDCDBF10E0F8
:10003000A0E6B0E0E6E7F1E002C005900D92A2363E
:10004000B107D9F720E0A2E6B0E001C01D92A336C7
:10005000B207E1F76CD08DC0D3CF1F920F920FB6CD
:100060000F9211248F939F93809160009091610073
:1000700083539F4F9093610080936000959A9F9166
:100080008F910F900FBE0F901F9018951F920F9297
:100090000FB60F9211248F939F9382B390E189271B
:1000A00082BB9F918F910F900FBE0F901F9018955C
:1000B0001F920F920FB60F9211240F900FBE0F9048
:1000C0001F9018951F920F920FB60F9211242F9325
:1000D0008F939F938091600090916100892B21F113
:1000E00080916000909161000197909361008093EE
:1000F000600080916200815080936200843018F02B
:1001000083E0809362002091620081E090E001C072
:10011000880F2A95EAF788BB9F918F912F910F90B6
:100120000FBE0F901F90189518BA9598F5CF8C9A1E
:10013000BD9A81B3837F81BB8FEF87BB18BA949838
:10014000959886E986BF83E294EF9BBD8ABD82E0E5
:1001500080BF84E083BF8EB58D608EBD89B781641A
:1001600089BF8BB7806C8BBF85B78A6085BF789459
:06017000FFCFF894FFCF61
:0201760000087F
:00000001FF
