:1000000012C02BC059C028C077C026C025C024C04C
:1000100023C022C021C020C01FC095C01DC01CC06D
:100020001BC01AC019C011241FBECFEDCDBF10E0F8
:10003000A0E6B0E0E8E0F3E002C005900D92A6363D
:10004000B107D9F720E0A6E6B0E001C01D92AA36BC
:10005000B207E1F732D156C1D3CF1F920F920FB63C
:100060000F9211248F939F938091610080FF12C0A3
:10007000809161008E7F809361008CE997E090937E
:100080006500809364009F918F910F900FBE0F9039
:100090001F90189584E690E090936500809364002B
:1000A000809162009091630086539F4F909363000C
:1000B00080936200919AE7CF1F920F920FB60F9232
:1000C00011248F939F938091610081FF12C08091D2
:1000D00061008D7F809361008CE997E090936300CD
:1000E000809362009F918F910F900FBE0F901F9091
:1000F000189584E690E0F2CF1F920F920FB60F9200
:1001000011248F939F9380916600909167000196D0
:100110009093670080936600029770F010926700DA
:1001200010926600809164009091650086539F4F05
:1001300090936500809364009F918F910F900FBE04
:100140000F901F9018951F920F920FB60F921124C7
:100150002F933F938F939F93849B6CC080916000FB
:100160008F708F3029F0809160008F5F80936000E6
:10017000869B81C080916000807F803F29F08091C4
:100180006000805F809360008091640090916500C2
:10019000892B09F48AC080916400909165000197D1
:1001A00090936500809364008091690081508093F2
:1001B0006900843018F083E08093690090916900B1
:1001C00088B321E030E001C0220F9A95EAF7807FE2
:1001D000822B88BB8091620090916300892B09F487
:1001E00067C08091620090916300019790936300D3
:1001F0008093620080916800815080936800843011
:1002000018F083E0809368009091680088B39C5F49
:1002100021E030E001C0220F9A95EAF78F70822B1F
:1002200088BB9F918F913F912F910F900FBE0F90A0
:100230001F901895809160008F7009F499CF80917C
:100240006000815080936000809160008F7009F0A1
:100250008FCF83E08093610080E098E09093650009
:100260008093640090936300809362001092670013
:10027000109266007DCF80916000807F09F484CF6A
:100280008091600080518093600080916000807F49
:1002900009F07ACF809164009091650086539F4F5A
:1002A00090936500809364006FCF88B3807F91CF77
:1002B00088B38F7088BB9198B4CF81B3836081BBC2
:1002C00081B3837A81BB8CE582BB8FEF87BB18BA81
:1002D000909891988BE986BF81E19AE79BBD8ABD92
:1002E00082E080BF83E083BF8EB58D608EBD89B70D
:1002F000816489BF8BB7806C8BBF85B78A6085BFEF
:080300007894FFCFF894FFCFC1
:060308000F0300080008CD
:00000001FF
